:100000000C945E000C9486000C9486000C94860080
:100010000C9486000C9486000C9486000C94860048
:100020000C9486000C9486000C9486000C94860038
:100030000C9486000C9486000C9486000C94860028
:100040000C943C040C9486000C940A040C94E40375
:100050000C9486000C9486000C9486000C94860008
:100060000C9486000C948600000000080002010039
:100070000003040700000000000000000000000072
:10008000250028002B0000000000240027002A0083
:10009000040404040404040402020202020203032E
:1000A0000303030301020408102040800102040836
:1000B00010200102040810208604440611241FBEEB
:1000C000CFEFD8E0DEBFCDBF21E0A6E2B1E001C0B6
:1000D0001D92A73FB207E1F711E0A0E0B1E0E8E12F
:1000E000F1E102C005900D92A632B107D9F710E0F8
:1000F000CDE5D0E004C02197FE010E948706CC35F3
:10010000D107C9F70E94D8040C947F080C94000012
:1001100090E0FC01EC55FF4F249180579F4FFC016C
:100120008491882399F090E0880F991FFC01EA5789
:10013000FF4FA591B491FC01E458FF4F8591949134
:100140008FB7F894EC91E22BEC938FBF0895AF92A8
:10015000BF92CF92DF92EF92FF920F931F93CF93B4
:10016000DF936C017B018B01040F151FEB015E0116
:10017000AE18BF08C017D10759F06991D601ED91AB
:10018000FC910190F081E02DC6010995892B79F74A
:10019000C501DF91CF911F910F91FF90EF90DF90FC
:1001A000CF90BF90AF900895FC01538D448D252FC3
:1001B00030E0842F90E0821B930B541710F0CF9601
:1001C000089501970895FC01918D828D981761F033
:1001D000A28DAE0FBF2FB11D5D968C91928D9F5F4A
:1001E0009F73928F90E008958FEF9FEF0895FC0129
:1001F000918D828D981731F0828DE80FF11D858DDC
:1002000090E008958FEF9FEF0895FC01918D228D6E
:10021000892F90E0805C9F4F821B91098F739927F3
:10022000089582E391E00E94050121E0892B09F401
:1002300020E0822F089580E090E0892B29F00E9431
:10024000110181110C9400000895FC01A48DA80FE8
:10025000B92FB11DA35ABF4F2C91848D90E0019608
:100260008F739927848FA689B7892C93A089B18928
:100270008C91837080648C93938D848D981306C0C9
:100280000288F389E02D80818F7D80830895EF922D
:10029000FF920F931F93CF93DF93EC0181E0888F40
:1002A0009B8D8C8D98131AC0E889F989808185FF10
:1002B00015C09FB7F894EE89FF896083E889F989B2
:1002C00080818370806480839FBF81E090E0DF91B4
:1002D000CF911F910F91FF90EF900895F62E0B8D07
:1002E00010E00F5F1F4F0F731127E02E8C8D8E11C2
:1002F0000CC00FB607FCFACFE889F989808185FF29
:10030000F5CFCE010E942501F1CFEB8DEC0FFD2F33
:10031000F11DE35AFF4FF0829FB7F8940B8FEA89E3
:10032000FB8980818062CFCFCF93DF93EC01888DF2
:100330008823B9F0AA89BB89E889F9898C9185FD60
:1003400003C0808186FD0DC00FB607FCF7CF8C91EE
:1003500085FFF2CF808185FFEDCFCE010E94250180
:10036000E9CFDF91CF91089590E0FC01E859FF4F6C
:100370002491FC01EC55FF4F3491FC01E057FF4FF5
:10038000E491EE23C9F0222339F0233001F1A8F4DF
:10039000213019F1223029F1F0E0EE0FFF1FE4586F
:1003A000FF4FA591B4918FB7F894EC91611126C0DD
:1003B00030953E233C938FBF08952730A9F0283015
:1003C000C9F0243049F7809180008F7D03C080916F
:1003D00080008F7780938000DFCF84B58F7784BDD6
:1003E000DBCF84B58F7DFBCF8091B0008F7780937A
:1003F000B000D2CF8091B0008F7DF9CF3E2BDACF05
:100400003FB7F89480912B0190912C01A0912D0180
:10041000B0912E0126B5A89B05C02F3F19F001967B
:10042000A11DB11D3FBFBA2FA92F982F8827BC014E
:10043000CD01620F711D811D911D42E0660F771F76
:10044000881F991F4A95D1F70895089590E080E09C
:100450000895CF93DF93EC0160E08E810E94B40198
:1004600061E08E810E94B40160E08E810E94B4013F
:100470008BE891E00197F1F7DF91CF910895CF924A
:10048000DF92EF92FF920F931F93CF93DF936C0154
:100490007C0187E0E80EF11CD0E0C0E0062F10E000
:1004A000B8010C2E02C0759567950A94E2F7617049
:1004B000F70181917F010E94B4012196C430D105DA
:1004C00079F7C601DF91CF911F910F91FF90EF90C7
:1004D000DF90CF900C942902CF92DF92EF92FF929F
:1004E0000F931F93CF93DF93EC01F62E642F8C8133
:1004F0000E94B4018D818F3F19F060E00E94B40129
:100500000F2D10E08F8584FF25C06E0187E0C80E97
:10051000D11CF12CE12CB8010E2C02C07595679509
:100520000A94E2F76170F60181916F010E94B401B3
:10053000FFEFEF1AFF0A88E0E816F10461F7CE0139
:10054000DF91CF911F910F91FF90EF90DF90CF90AF
:100550000C942902B80184E0759567958A95E1F7B6
:10056000CE010E943F026F2DCE01DF91CF911F91EE
:100570000F91FF90EF90DF90CF900C943F0240E0FE
:10058000682F8BED91E00C946C0281E00E94BF0219
:100590008BE39FE10197F1F70895CF93DF938230CA
:1005A00029F49091EA0198609093EA018093EE011A
:1005B0001092EF0180E48093F00180E18093F101DB
:1005C00080E58093F2018091DF010E948800809194
:1005D000E0018F3F11F00E9488008091E1010E94AC
:1005E0008800CBEDD1E09E012B5D31408091EA0186
:1005F00084FD0AC084E090E02196281739073CF476
:100600008E810E948800EFCF88E090E0F5CF8BE3E9
:100610009DE00197F1F760E08091DF010E94B40155
:1006200060E08091E1010E94B4018091E0018F3F80
:1006300019F060E00E94B4018091EA0184FD34C0A9
:1006400063E08BED91E00E943F02CBE4D6E4CE0163
:100650000197F1F763E08BED91E00E943F02219753
:10066000F1F763E08BED91E00E943F0283E592E0B9
:100670000197F1F762E08BED91E00E943F028091DB
:10068000EA0180620E94BF0284E08093EB018CE06B
:100690000E94BF020E94C50282E08093EC0186E0C6
:1006A000DF91CF910C94BF0280620E94BF028BE465
:1006B00096E40197F1F78091EA0180620E94BF02FF
:1006C00083E592E00197F1F78091EA0180620E9450
:1006D000BF02D5CF41E00E946C0281E090E0089516
:1006E0000F931F93CF93DF93EC018881998100973B
:1006F00059F02A813B812617370730F081E0DF91DE
:10070000CF911F910F9108958B016F5F7F4F0E94D2
:10071000B207009759F0998388831B830A832C8141
:100720003D81232B59F7FC011082E8CF80E0E7CF11
:10073000CF93DF93EC01198218821B821A821D82EB
:100740001C8270E060E00E94700328813981811171
:100750000FC02115310519F0C9010E94290719821E
:1007600018821D821C821B821A82DF91CF9108950C
:100770001D821C8264E271E0C901DF91CF910C946B
:100780007808CF93DF93EC0170E060E00E94700383
:100790002881398181110FC02115310519F0C90156
:1007A0000E942907198218821D821C821B821A82CC
:1007B000DF91CF9108951D821C8264E271E0C9012E
:1007C000DF91CF910C9478081F920F920FB60F9281
:1007D00011242F933F934F935F936F937F938F9346
:1007E0009F93AF93BF93EF93FF9382E391E00E94B7
:1007F0002501FF91EF91BF91AF919F918F917F91D3
:100800006F915F914F913F912F910F900FBE0F907D
:100810001F9018951F920F920FB60F9211242F93CD
:100820008F939F93EF93FF93E0914201F0914301E7
:100830008081E0914801F091490182FD1BC09081C7
:1008400080914B018F5F8F7320914C01821741F093
:10085000E0914B01F0E0EE5CFE4F958F80934B01F1
:10086000FF91EF919F918F912F910F900FBE0F905D
:100870001F9018958081F4CF1F920F920FB60F92A0
:1008800011242F933F938F939F93AF93BF938091A6
:10089000270190912801A0912901B0912A0130915E
:1008A000260123E0230F2D3758F50196A11DB11D18
:1008B000209326018093270190932801A09329017A
:1008C000B0932A0180912B0190912C01A0912D01D0
:1008D000B0912E010196A11DB11D80932B01909323
:1008E0002C01A0932D01B0932E01BF91AF919F9148
:1008F0008F913F912F910F900FBE0F901F901895E1
:1009000026E8230F0296A11DB11DD2CFE2E3F1E04C
:100910001382128288EE93E0A0E0B0E08483958396
:10092000A683B7838AE091E09183808385EC90E091
:100930009587848784EC90E09787868780EC90E0A9
:10094000918B808B81EC90E0938B828B82EC90E09A
:10095000958B848B86EC90E0978B868B118E128E14
:10096000138E148EEBEDF1E0138212828CE191E094
:10097000918380838CE084838FEF85838BE08683F3
:1009800085E0878384E0808783E0818782E08287B7
:100990001386148615861686178681E00E94CD027E
:1009A00085ED91E00E9498038FEC91E00C94980300
:1009B000CF93DF9300D0CDB7DEB7789484B5826053
:1009C00084BD84B5816084BD85B5826085BD85B5F3
:1009D000816085BD80916E00816080936E00109271
:1009E00081008091810082608093810080918100EC
:1009F000816080938100809180008160809380007D
:100A00008091B10084608093B1008091B0008160DA
:100A10008093B00080917A00846080937A00809106
:100A20007A00826080937A0080917A00816080935E
:100A30007A0080917A00806880937A001092C100D9
:100A400082E00E94CD02E0914201F091430182E0F8
:100A50008083E0913E01F0913F011082E0914001DE
:100A6000F09141018FEC808310924A01E0914601A0
:100A7000F091470186E08083E0914401F0914501C7
:100A8000808180618083E0914401F0914501808103
:100A900088608083E0914401F09145018081806805
:100AA0008083E0914401F091450180818F7D8083B6
:100AB00090E0E92E90E0F92EDD24D39482E391E0DA
:100AC0000E940501892B09F474C082E391E00E9421
:100AD000E300C82E00912F01109130010F5F1F4FCE
:100AE0001093300100932F012AE082132CC0D09282
:100AF0003101809131018111E1CF013111058CF576
:100B0000C9821A820091D9011091DA010F5F1F4F3B
:100B1000B80185ED91E00E947003882379F220915D
:100B2000D5013091D6018091D9019091DA01BE01B1
:100B30006F5F7F4F820F931F0E9478081093DA0136
:100B40000093D901BBCF8AE2C812D3CF0E94C5025D
:100B500085ED91E00E94C1038FEC91E00E94C103FA
:100B6000C6CF013211050CF0A9CFC9821A820091BB
:100B7000D3011091D4010F5F1F4FB8018FEC91E0AA
:100B80000E947003882309F499CF2091CF013091FE
:100B9000D0018091D3019091D401BE016F5F7F4F4E
:100BA000820F931F0E9478081093D4010093D30101
:100BB00085CF809131018823A9F10E94C50240911F
:100BC000D9015091DA016091D5017091D6018BED78
:100BD00091E00E94A700E091EE01E23008F052C0DF
:100BE000E150F0E0E552FE4F848980680E94BF0228
:100BF0004091D3015091D4016091CF017091D00107
:100C00008BED91E00E94A7001092310185ED91E0FB
:100C10000E94C1038FEC91E00E94C1031092300149
:100C200010922F010E9400022B013C0182E3882ECA
:100C3000912CA12CB12C0E9400026419750986091F
:100C40009709683E734081059105A8F321E0821A57
:100C50009108A108B10888EE480E83E0581E611C77
:100C6000711C81149104A104B10429F7E114F10469
:100C700009F424CF0E941101882309F41FCF0E9498
:100C800000001CCFE1E0ADCF8091CF019091D00169
:100C90000E9429078091D5019091D6010C942907D3
:100CA0002F923F924F925F926F927F928F929F927C
:100CB000AF92BF92CF92DF92EF92FF920F931F936A
:100CC000CF93DF93CDB7DEB7CA1BDB0B0FB6F8941B
:100CD000DEBF0FBECDBF09942A88398848885F845B
:100CE0006E847D848C849B84AA84B984C884DF80CC
:100CF000EE80FD800C811B81AA81B981CE0FD11DB0
:100D00000FB6F894DEBF0FBECDBFED010895EE0F14
:100D1000FF1F0590F491E02D09940F931F93CF933B
:100D2000DF938230910510F482E090E0E091F501CC
:100D3000F091F60130E020E0B0E0A0E0309799F4C7
:100D40002115310509F44AC0281B390B243031051F
:100D5000D8F58A819B816115710589F1FB01938327
:100D60008283FE0111C040815181028113814817A5
:100D70005907E0F04817590799F4109761F0129657
:100D80000C93129713961C933296CF01DF91CF915B
:100D90001F910F9108950093F5011093F601F4CF80
:100DA0002115310551F04217530738F0A901DB0135
:100DB0009A01BD01DF01F801C1CFEF01F9CF909396
:100DC000F6018093F501CDCFFE01E20FF31F819371
:100DD00091932250310939832883D7CF2091F30191
:100DE0003091F401232B41F4209102013091030151
:100DF0003093F4012093F30120910001309101011F
:100E00002115310541F42DB73EB7409104015091B1
:100E10000501241B350BE091F301F091F401E21779
:100E2000F307A0F42E1B3F0B2817390778F0AC010D
:100E30004E5F5F4F2417350748F04E0F5F1F5093EA
:100E4000F4014093F301819391939FCFF0E0E0E0B0
:100E50009CCFCF93DF930097E9F0FC013297138288
:100E60001282A091F501B091F601ED0130E020E091
:100E70001097A1F420813181820F931F2091F301FB
:100E80003091F4012817390709F061C0F093F4019B
:100E9000E093F301DF91CF910895EA01CE17DF07C8
:100EA000E8F54A815B819E0141155105B1F7E901E1
:100EB000FB83EA8349915991C40FD51FEC17FD07B5
:100EC00061F4808191810296840F951FE9019983D5
:100ED0008883828193819B838A83F0E0E0E012968D
:100EE0008D919C9113970097B9F52D913C91119795
:100EF000CD010296820F931F2091F3013091F401EE
:100F00002817390739F6309751F51092F6011092EB
:100F1000F501B093F401A093F301BCCFD383C28356
:100F200040815181840F951FC817D90761F44E5F26
:100F30005F4F88819981480F591F518340838A816F
:100F40009B81938382832115310509F0B0CFF09303
:100F5000F601E093F5019ECFFD01DC01C0CF1382C5
:100F60001282D7CFB0E0A0E0E8EBF7E00C94520695
:100F70008C01009751F4CB010E948D068C01C801B1
:100F8000CDB7DEB7E0E10C946E06FC01E60FF71F6B
:100F90009C0122503109E217F30708F49DC0D901E2
:100FA000CD91DC911197C617D70798F0C530D105C0
:100FB00030F3CE0104978617970708F3C61BD70BAB
:100FC0002297C193D1936D937C93CF010E942907FF
:100FD000D6CF5B01AC1ABD0A4C018C0E9D1EA091B0
:100FE000F501B091F601512C412CF12CE12C109718
:100FF00031F58091F3019091F4018815990509F07C
:101000005CC04616570608F058C0809100019091C8
:101010000101009741F48DB79EB7409104015091B2
:101020000501841B950BE817F90708F055C0F093EC
:10103000F401E093F301F90171836083A0CF8D91F6
:101040009C91119712966C90129713967C9013971F
:10105000A815B90559F56C0142E0C40ED11CCA149B
:10106000DB0420F1AC014A195B09DA0112961597ED
:1010700080F06282738251834083D9016D937C93A7
:10108000E114F10471F0D7011396FC93EE931297DB
:1010900076CF22968C0F9D1FF90191838083F301F7
:1010A000EFCFF093F601E093F50169CF48165906AA
:1010B00008F42C017D01D3019ACFCB010E948D064B
:1010C0007C01009749F0AE01B8010E946F08C80189
:1010D0000E942907870153CF10E000E050CFFB01A9
:1010E000DC0102C001900D9241505040D8F70895A4
:1010F000FB01DC0101900D920020E1F7089510E062
:10110000CDE5D0E004C0FE010E9487062196CE35D1
:08111000D107C9F7F894FFCFE5
:101118000000F7018000000000004701A700D4008C
:1011280094010501E300F700000000006A03A7002E
:0611380026022502000062
:107E0000112484B714BE81FFF0D085E080938100F7
:107E100082E08093C00088E18093C10086E0809377
:107E2000C20080E18093C4008EE0C9D0259A86E02C
:107E300020E33CEF91E0309385002093840096BBD3
:107E4000B09BFECF1D9AA8958150A9F7CC24DD24C4
:107E500088248394B5E0AB2EA1E19A2EF3E0BF2EE7
:107E6000A2D0813461F49FD0082FAFD0023811F036
:107E7000013811F484E001C083E08DD089C08234E0
:107E800011F484E103C0853419F485E0A6D080C0E4
:107E9000853579F488D0E82EFF2485D0082F10E0AE
:107EA000102F00270E291F29000F111F8ED06801E7
:107EB0006FC0863521F484E090D080E0DECF843638
:107EC00009F040C070D06FD0082F6DD080E0C81688
:107ED00080E7D80618F4F601B7BEE895C0E0D1E017
:107EE00062D089930C17E1F7F0E0CF16F0E7DF06D8
:107EF00018F0F601B7BEE89568D007B600FCFDCFD4
:107F0000A601A0E0B1E02C9130E011968C91119780
:107F100090E0982F8827822B932B1296FA010C0160
:107F200087BEE89511244E5F5F4FF1E0A038BF0790
:107F300051F7F601A7BEE89507B600FCFDCF97BE46
:107F4000E89526C08437B1F42ED02DD0F82E2BD052
:107F50003CD0F601EF2C8F010F5F1F4F84911BD097
:107F6000EA94F801C1F70894C11CD11CFA94CF0C13
:107F7000D11C0EC0853739F428D08EE10CD085E9AC
:107F80000AD08FE07ACF813511F488E018D01DD067
:107F900080E101D065CF982F8091C00085FFFCCF94
:107FA0009093C60008958091C00087FFFCCF809118
:107FB000C00084FD01C0A8958091C6000895E0E648
:107FC000F0E098E1908380830895EDDF803219F02E
:107FD00088E0F5DFFFCF84E1DECF1F93182FE3DFCA
:107FE0001150E9F7F2DF1F91089580E0E8DFEE27F6
:047FF000FF270994CA
:027FFE00040479
:0400000300007E007B
:00000001FF